{
    "address": "0xe6240ADE40dFE7D1E26eeA546614744c6D37f8B5",
    "abi": [
        {
            "inputs": [
                {
                    "internalType": "address",
                    "name": "priceFeedAddress",
                    "type": "address"
                }
            ],
            "stateMutability": "nonpayable",
            "type": "constructor"
        },
        {
            "inputs": [],
            "name": "FundMe__NotOwner",
            "type": "error"
        },
        {
            "stateMutability": "payable",
            "type": "fallback"
        },
        {
            "inputs": [],
            "name": "MINIMUM_USD",
            "outputs": [
                {
                    "internalType": "uint256",
                    "name": "",
                    "type": "uint256"
                }
            ],
            "stateMutability": "view",
            "type": "function"
        },
        {
            "inputs": [],
            "name": "cheaperWithdraw",
            "outputs": [],
            "stateMutability": "payable",
            "type": "function"
        },
        {
            "inputs": [],
            "name": "fund",
            "outputs": [],
            "stateMutability": "payable",
            "type": "function"
        },
        {
            "inputs": [
                {
                    "internalType": "uint256",
                    "name": "index",
                    "type": "uint256"
                }
            ],
            "name": "getFunder",
            "outputs": [
                {
                    "internalType": "address",
                    "name": "",
                    "type": "address"
                }
            ],
            "stateMutability": "view",
            "type": "function"
        },
        {
            "inputs": [],
            "name": "getOwner",
            "outputs": [
                {
                    "internalType": "address",
                    "name": "",
                    "type": "address"
                }
            ],
            "stateMutability": "view",
            "type": "function"
        },
        {
            "inputs": [],
            "name": "getPriceFeed",
            "outputs": [
                {
                    "internalType": "contract AggregatorV3Interface",
                    "name": "",
                    "type": "address"
                }
            ],
            "stateMutability": "view",
            "type": "function"
        },
        {
            "inputs": [
                {
                    "internalType": "address",
                    "name": "funder",
                    "type": "address"
                }
            ],
            "name": "getaddressToAmountFunded",
            "outputs": [
                {
                    "internalType": "uint256",
                    "name": "",
                    "type": "uint256"
                }
            ],
            "stateMutability": "view",
            "type": "function"
        },
        {
            "inputs": [],
            "name": "withdraw",
            "outputs": [],
            "stateMutability": "nonpayable",
            "type": "function"
        },
        {
            "stateMutability": "payable",
            "type": "receive"
        }
    ],
    "transactionHash": "0xcdbf8cae3cf6d41aeb616dd4ed842b70e9cb4bdf0b0d5bdc77e8515c2f0cabd0",
    "args": [
        "0x8A753747A1Fa494EC906cE90E9f37563A8AF630e"
    ],
    "numDeployments": 2,
    "solcInputHash": "e8d7f372385b6139e92ea6bddd79f2e0",
    "bytecode": "0x60a06040523480156200001157600080fd5b506040516200128238038062001282833981810160405281019062000037919062000120565b3373ffffffffffffffffffffffffffffffffffffffff1660808173ffffffffffffffffffffffffffffffffffffffff1660601b8152505080600260006101000a81548173ffffffffffffffffffffffffffffffffffffffff021916908373ffffffffffffffffffffffffffffffffffffffff1602179055505062000152565b600080fd5b600073ffffffffffffffffffffffffffffffffffffffff82169050919050565b6000620000e882620000bb565b9050919050565b620000fa81620000db565b81146200010657600080fd5b50565b6000815190506200011a81620000ef565b92915050565b600060208284031215620001395762000138620000b6565b5b6000620001498482850162000109565b91505092915050565b60805160601c6110fc62000186600039600081816102e901528181610581015281816105d101526107c701526110fc6000f3fe60806040526004361061007f5760003560e01c80639e87a5cd1161004e5780639e87a5cd14610142578063b60d42881461016d578063be2693f014610177578063d7b4750c146101815761008e565b80633ccfd60b146100985780636b69a592146100af578063832b1d2c146100da578063893d20e8146101175761008e565b3661008e5761008c6101be565b005b6100966101be565b005b3480156100a457600080fd5b506100ad6102e7565b005b3480156100bb57600080fd5b506100c4610527565b6040516100d19190610a40565b60405180910390f35b3480156100e657600080fd5b5061010160048036038101906100fc9190610abe565b610534565b60405161010e9190610a40565b60405180910390f35b34801561012357600080fd5b5061012c61057d565b6040516101399190610afa565b60405180910390f35b34801561014e57600080fd5b506101576105a5565b6040516101649190610b74565b60405180910390f35b6101756101be565b005b61017f6105cf565b005b34801561018d57600080fd5b506101a860048036038101906101a39190610bbb565b61085d565b6040516101b59190610afa565b60405180910390f35b6802b5e3af16b18800006101fd600260009054906101000a900473ffffffffffffffffffffffffffffffffffffffff16346108a490919063ffffffff16565b101561023e576040517f08c379a000000000000000000000000000000000000000000000000000000000815260040161023590610c45565b60405180910390fd5b6000339080600181540180825580915050600190039060005260206000200160009091909190916101000a81548173ffffffffffffffffffffffffffffffffffffffff021916908373ffffffffffffffffffffffffffffffffffffffff16021790555034600160003373ffffffffffffffffffffffffffffffffffffffff1673ffffffffffffffffffffffffffffffffffffffff16815260200190815260200160002081905550565b7f000000000000000000000000000000000000000000000000000000000000000073ffffffffffffffffffffffffffffffffffffffff163373ffffffffffffffffffffffffffffffffffffffff161461036c576040517f579610db00000000000000000000000000000000000000000000000000000000815260040160405180910390fd5b60005b60008054905081101561041757600080828154811061039157610390610c65565b5b9060005260206000200160009054906101000a900473ffffffffffffffffffffffffffffffffffffffff1690506000600160008373ffffffffffffffffffffffffffffffffffffffff1673ffffffffffffffffffffffffffffffffffffffff1681526020019081526020016000208190555050808061040f90610cc3565b91505061036f565b50600067ffffffffffffffff81111561043357610432610d0c565b5b6040519080825280602002602001820160405280156104615781602001602082028036833780820191505090505b5060009080519060200190610477929190610980565b5060003373ffffffffffffffffffffffffffffffffffffffff164760405161049e90610d6c565b60006040518083038185875af1925050503d80600081146104db576040519150601f19603f3d011682016040523d82523d6000602084013e6104e0565b606091505b5050905080610524576040517f08c379a000000000000000000000000000000000000000000000000000000000815260040161051b90610dcd565b60405180910390fd5b50565b6802b5e3af16b188000081565b6000600160008373ffffffffffffffffffffffffffffffffffffffff1673ffffffffffffffffffffffffffffffffffffffff168152602001908152602001600020549050919050565b60007f0000000000000000000000000000000000000000000000000000000000000000905090565b6000600260009054906101000a900473ffffffffffffffffffffffffffffffffffffffff16905090565b7f000000000000000000000000000000000000000000000000000000000000000073ffffffffffffffffffffffffffffffffffffffff163373ffffffffffffffffffffffffffffffffffffffff1614610654576040517f579610db00000000000000000000000000000000000000000000000000000000815260040160405180910390fd5b6000808054806020026020016040519081016040528092919081815260200182805480156106d757602002820191906000526020600020905b8160009054906101000a900473ffffffffffffffffffffffffffffffffffffffff1673ffffffffffffffffffffffffffffffffffffffff168152602001906001019080831161068d575b5050505050905060005b81518110156107625760008282815181106106ff576106fe610c65565b5b602002602001015190506000600160008373ffffffffffffffffffffffffffffffffffffffff1673ffffffffffffffffffffffffffffffffffffffff1681526020019081526020016000208190555050808061075a90610cc3565b9150506106e1565b50600067ffffffffffffffff81111561077e5761077d610d0c565b5b6040519080825280602002602001820160405280156107ac5781602001602082028036833780820191505090505b50600090805190602001906107c2929190610980565b5060007f000000000000000000000000000000000000000000000000000000000000000073ffffffffffffffffffffffffffffffffffffffff164760405161080990610d6c565b60006040518083038185875af1925050503d8060008114610846576040519150601f19603f3d011682016040523d82523d6000602084013e61084b565b606091505b505090508061085957600080fd5b5050565b600080828154811061087257610871610c65565b5b9060005260206000200160009054906101000a900473ffffffffffffffffffffffffffffffffffffffff169050919050565b6000806108b0836108e0565b90506000670de0b6b3a764000085836108c99190610ded565b6108d39190610e76565b9050809250505092915050565b6000808273ffffffffffffffffffffffffffffffffffffffff1663feaf968c6040518163ffffffff1660e01b815260040160a06040518083038186803b15801561092957600080fd5b505afa15801561093d573d6000803e3d6000fd5b505050506040513d601f19601f820116820180604052508101906109619190610f34565b5050509150506402540be400816109789190610faf565b915050919050565b8280548282559060005260206000209081019282156109f9579160200282015b828111156109f85782518260006101000a81548173ffffffffffffffffffffffffffffffffffffffff021916908373ffffffffffffffffffffffffffffffffffffffff160217905550916020019190600101906109a0565b5b509050610a069190610a0a565b5090565b5b80821115610a23576000816000905550600101610a0b565b5090565b6000819050919050565b610a3a81610a27565b82525050565b6000602082019050610a556000830184610a31565b92915050565b600080fd5b600073ffffffffffffffffffffffffffffffffffffffff82169050919050565b6000610a8b82610a60565b9050919050565b610a9b81610a80565b8114610aa657600080fd5b50565b600081359050610ab881610a92565b92915050565b600060208284031215610ad457610ad3610a5b565b5b6000610ae284828501610aa9565b91505092915050565b610af481610a80565b82525050565b6000602082019050610b0f6000830184610aeb565b92915050565b6000819050919050565b6000610b3a610b35610b3084610a60565b610b15565b610a60565b9050919050565b6000610b4c82610b1f565b9050919050565b6000610b5e82610b41565b9050919050565b610b6e81610b53565b82525050565b6000602082019050610b896000830184610b65565b92915050565b610b9881610a27565b8114610ba357600080fd5b50565b600081359050610bb581610b8f565b92915050565b600060208284031215610bd157610bd0610a5b565b5b6000610bdf84828501610ba6565b91505092915050565b600082825260208201905092915050565b7f596f75206e65656420746f207370656e64206d6f726520455448000000000000600082015250565b6000610c2f601a83610be8565b9150610c3a82610bf9565b602082019050919050565b60006020820190508181036000830152610c5e81610c22565b9050919050565b7f4e487b7100000000000000000000000000000000000000000000000000000000600052603260045260246000fd5b7f4e487b7100000000000000000000000000000000000000000000000000000000600052601160045260246000fd5b6000610cce82610a27565b91507fffffffffffffffffffffffffffffffffffffffffffffffffffffffffffffffff821415610d0157610d00610c94565b5b600182019050919050565b7f4e487b7100000000000000000000000000000000000000000000000000000000600052604160045260246000fd5b600081905092915050565b50565b6000610d56600083610d3b565b9150610d6182610d46565b600082019050919050565b6000610d7782610d49565b9150819050919050565b7f43616c6c206661696c6564000000000000000000000000000000000000000000600082015250565b6000610db7600b83610be8565b9150610dc282610d81565b602082019050919050565b60006020820190508181036000830152610de681610daa565b9050919050565b6000610df882610a27565b9150610e0383610a27565b9250817fffffffffffffffffffffffffffffffffffffffffffffffffffffffffffffffff0483118215151615610e3c57610e3b610c94565b5b828202905092915050565b7f4e487b7100000000000000000000000000000000000000000000000000000000600052601260045260246000fd5b6000610e8182610a27565b9150610e8c83610a27565b925082610e9c57610e9b610e47565b5b828204905092915050565b600069ffffffffffffffffffff82169050919050565b610ec681610ea7565b8114610ed157600080fd5b50565b600081519050610ee381610ebd565b92915050565b6000819050919050565b610efc81610ee9565b8114610f0757600080fd5b50565b600081519050610f1981610ef3565b92915050565b600081519050610f2e81610b8f565b92915050565b600080600080600060a08688031215610f5057610f4f610a5b565b5b6000610f5e88828901610ed4565b9550506020610f6f88828901610f0a565b9450506040610f8088828901610f1f565b9350506060610f9188828901610f1f565b9250506080610fa288828901610ed4565b9150509295509295909350565b6000610fba82610ee9565b9150610fc583610ee9565b9250827f7fffffffffffffffffffffffffffffffffffffffffffffffffffffffffffffff048211600084136000841316161561100457611003610c94565b5b817f8000000000000000000000000000000000000000000000000000000000000000058312600084126000841316161561104157611040610c94565b5b827f8000000000000000000000000000000000000000000000000000000000000000058212600084136000841216161561107e5761107d610c94565b5b827f7fffffffffffffffffffffffffffffffffffffffffffffffffffffffffffffff05821260008412600084121616156110bb576110ba610c94565b5b82820290509291505056fea26469706673582212209c99f1252fc8f2b90dc8b8808a885900cde05a8ba0ec29c968cd24162ad9df9264736f6c63430008080033",
    "devdoc": {
        "author": "Akinloluwa Olumuyide",
        "details": "This implements price feeds as our library",
        "kind": "dev",
        "methods": {},
        "title": "A contract for crowd funding",
        "version": 1
    },
    "userdoc": {
        "kind": "user",
        "methods": {},
        "notice": "This contract is to demo a sample funding contract",
        "version": 1
    },
    "storageLayout": {
        "storage": [
            {
                "astId": 65,
                "contract": "contracts/FundMe.sol:FundMe",
                "label": "s_funders",
                "offset": 0,
                "slot": "0",
                "type": "t_array(t_address)dyn_storage"
            },
            {
                "astId": 69,
                "contract": "contracts/FundMe.sol:FundMe",
                "label": "s_addressToAmountFunded",
                "offset": 0,
                "slot": "1",
                "type": "t_mapping(t_address,t_uint256)"
            },
            {
                "astId": 74,
                "contract": "contracts/FundMe.sol:FundMe",
                "label": "s_priceFeed",
                "offset": 0,
                "slot": "2",
                "type": "t_contract(AggregatorV3Interface)45"
            }
        ],
        "types": {
            "t_address": {
                "encoding": "inplace",
                "label": "address",
                "numberOfBytes": "20"
            },
            "t_array(t_address)dyn_storage": {
                "base": "t_address",
                "encoding": "dynamic_array",
                "label": "address[]",
                "numberOfBytes": "32"
            },
            "t_contract(AggregatorV3Interface)45": {
                "encoding": "inplace",
                "label": "contract AggregatorV3Interface",
                "numberOfBytes": "20"
            },
            "t_mapping(t_address,t_uint256)": {
                "encoding": "mapping",
                "key": "t_address",
                "label": "mapping(address => uint256)",
                "numberOfBytes": "32",
                "value": "t_uint256"
            },
            "t_uint256": {
                "encoding": "inplace",
                "label": "uint256",
                "numberOfBytes": "32"
            }
        }
    }
}